:020000040000FA
:100000008811002001010000E13900004D36000098
:10001000CD380000B909000069410000000000006F
:10002000000000000000000000000000293C00006B
:10003000650C000000000000033A00004F3C000087
:100040001B0100001B0100001B010000493B0000D8
:100050001B0100001B0100001B0100001B01000030
:100060001B0100001B0100001B0100001B01000020
:100070001B0100001B0100001B0100001B01000010
:100080001B0100001B0100001B0100001B01000000
:100090001B0100001B0100001B0100001B010000F0
:1000A0001B0100001B0100001B0100001B010000E0
:1000B0001B0100001B010000113D00001B0100009E
:1000C0001B0100001B0100001B0100001B010000C0
:1000D0001B010000ED400000F94000001B01000082
:1000E000650F00001B0100001B010000DFF80CD0B1
:1000F00000F0E6FA00480047F945000088110020AA
:100100000648804706480047FEE7FEE7FEE7FEE7B1
:10011000FEE7FEE7FEE7FEE7FEE7FEE7C93C00007C
:10012000ED000000202A04DB203A21FA02F0002131
:10013000704721FA02F3D040C2F1200291400843F7
:1001400019467047D2B201E000F8012B491EFBD2DC
:1001500070470022F6E710B513460A4604461946D2
:10016000FFF7F0FF204610BD034611F8012B00F801
:10017000012B002AF9D1184670472DE9FE4F804621
:1001800081EA0300C00F0C46009021F0004123F0EB
:100190000045B8EB0200A94105D2404621469046F1
:1001A0001C460B46024623F00040104347D0270D63
:1001B000C7F30A00C3F30A510290401A0190402885
:1001C0006BDAC3F3130040F4801B0098924620B111
:1001D0000023D2EB030A63EB0B0B01985946C0F1E5
:1001E0004002504600F0B6F906460D4650465946C4
:1001F000019A00F0BEF910EB08006141002487EA83
:10020000115284EAE7731A4340D0009A62B3019A0C
:10021000012A4FEA075215DC001B61EB02014FF087
:10022000004202EA0752CDE90042001C41F580116C
:1002300032462B4600F0F5F903B0BDE8F08F40469A
:100240002146F9E7001B61EB0201001C41F5801318
:1002500000185B412018A2F5001747EB030140EAA4
:10026000D570B6196D4111E06D084FEA360645EAC2
:10027000C0754FEA0752001B61EB0201001C41F5FB
:10028000801149084FEA30000019514132462B468F
:1002900003B0BDE8F04F00F0B5B90098012240006E
:1002A0000023D0EB020263EBE073009821464FEA93
:1002B000E074B8EB000061EB0401E9E783F0004370
:1002C0005BE781F0004158E72DE9FE4F81EA030426
:1002D00004F0004421F0004100944FF0000B23F0A3
:1002E000004350EA01045ED052EA03045BD0C3F33A
:1002F0000A54C1F30A552C44A4F2F3340194A0FB30
:100300000254C1F3130141F48011C3F3130343F406
:10031000801301FB024400FB034E840A970A44EA5F
:10032000815447EA8357A4FB076802958D0A05FBB1
:1003300007854FEA932C04FB0C542705029D4FEAD6
:10034000065847EA1637B5EB08056EEB070C870E23
:10035000920E47EA811742EA8312A7FB0201B6EB2D
:100360000B0164EB00042B0D43EA0C335E1844EBE5
:100370001C50DA465146E7FB0201C5F313044FEA6D
:100380000B3343EA14534FEA0432019C43EA060359
:10039000A4F10C040294009CCDE900B400F041F9F2
:1003A00003B0BDE8F08F00200146F9E72DE9F04DDC
:1003B00081EA030404F0004B21F0004514464FF09D
:1003C000000A23F0004150EA050220D054EA01025D
:1003D0001DD0C5F30A570246C5F31303C1F313003A
:1003E000C1F30A5640F4801543F48013A7EB0608C6
:1003F000101BD64608F2FD3873EB050002D308F156
:10040000010801E092185B41B8F1000F03DA002007
:100410000146BDE8F08D00204FF480110646844669
:100420000EE0171B73EB050705D3121B63EB0503E7
:1004300006434CEA010C49084FEA300092185B4130
:1004400050EA0107EDD152EA030012D082EA04001B
:1004500083EA0501084305D0101BAB4106D20122F7
:10046000002306E000224FF0004302E06FF001029B
:1004700053101AEB06004CEB085110EB0A0041EB4D
:100480000B01BDE8F04D00F0BDB8C10F80EAE0708F
:100490000844CA079623002100F086B80EB5C10FA4
:1004A00080EAE0700844CA07002140F233438DE837
:1004B0000E000A460B4600F0B4F803B000BD70B55C
:1004C000C1F30A5201F000450024C1F3130140F2C8
:1004D000FF3341F480119A4201DA002070BD40F2EE
:1004E00033439A42A2F2334203DC5242FFF71AFE30
:1004F00000E090402C43F1D0404270BDC1F30A525D
:1005000010B5C1F3130140F2FF3341F480119A4258
:1005100001DA002010BD40F233439A42A2F2334286
:1005200003DC5242FFF7FEFD10BD904010BD00F00D
:10053000004230F000400AD0C10D01F56071C0F3F7
:10054000160042EA0151C2084007114370470020DB
:1005500001467047202A04DB203A00FA02F100200D
:1005600070479140C2F1200320FA03F319439040F1
:100570007047202A06DBCB17203A41FA02F043EA03
:10058000E07306E041FA02F3D040C2F1200291404C
:100590000843194670470029A8BF7047401C49000E
:1005A00008BF20F00100704710B4B0FA80FC00FAD8
:1005B0000CF050EA010404BF10BC704749B1CCF103
:1005C000200421FA04F411FA0CF118BF012121438F
:1005D0000843A3EB0C01CB1D4FEA00614FEA10204A
:1005E00042BF002010BC704700EBC35010440029EC
:1005F000A4BF10BC7047401C490008BF20F0010098
:1006000010BC704710B5141E73F1000408DA401CCA
:1006100041F1000192185B411A4301D120F0010021
:1006200010BD2DE9F04D92469B4611B1B1FA81F211
:1006300002E0B0FA80F220329046FFF78BFF0446CA
:100640000F4640EA0A0041EA0B0153465A46084366
:1006500013D0114653EA010019D0C8F140025046A8
:10066000FFF760FD05460E46504659464246FFF7E5
:1006700071FF084305D0012004E020463946BDE85B
:10068000F08D0020054346EAE0762C4337430A9874
:100690006305E40AA0EB08000022FD0A44EA47547F
:1006A0000A3002D500200146E9E701051019694129
:1006B000DDE9084500196941BDE8F04DA2E70000F9
:1006C000064C074D06E0E06840F0010394E807009F
:1006D00098471034AC42F6D3FFF70CFD40490000B8
:1006E0006049000070B501220D4D9602002431468C
:1006F000284601F010FC00F0B6FAE914284601F093
:1007000005FC012800D1012400223146284601F0D1
:1007100002FC00F0A8FA00F055F8204670BD000079
:10072000000C01402DE9F0410122164ED7020024B1
:100730003946304601F0EFFB00F026F80025B846B8
:1007400037156006040E01223946304601F0E3FBFE
:1007500000F089FA4146304601F0D8FB012801D16A
:1007600044F0010400223946304601F0D4FB00F089
:100770007AFA6D1CEDB2082DE3D300F023F8204681
:10078000BDE8F081000C014000B585B0002001906B
:1007900002900A48816941F00801816180696946D7
:1007A00000F0080004904FF40060009002200390D5
:1007B000034801F0CDFA05B000BD00000010024072
:1007C000000C01400C4800B5816985B041F008017A
:1007D00081618069694600F0080004904FF4006070
:1007E000009001200190029002200390034801F044
:1007F000AFFA05B000BD000000100240000C01403F
:1008000070B50E4C4FF40061012814D00022204630
:1008100001F081FB012295022946204601F07BFB75
:1008200000F021FA00222946204601F074FBBDE8C1
:10083000704000F018BA0122E9E70000000C014006
:100840002DE9F0410546FFF7BDFF154F00244FF499
:1008500000683E15280601D5012200E0002241462D
:10086000384601F058FB6806050E0122314638462D
:1008700001F051FB00F0F7F900223146384601F053
:100880004AFB00F0F0F9641CE4B2082CE2D3FFF755
:100890007BFFFFF727FFBDE8F041FFF793BF0000A4
:1008A000000C014070B501220D4DD40221462846AE
:1008B00001F031FB012296023146284601F02BFB64
:1008C00000F0D1F900222146284601F024FB00F077
:1008D000CAF931462846BDE87040002201F01BBB32
:1008E000000C014070B50C4D4FF40064002221460D
:1008F000284601F010FB01229102284601F00BFB73
:1009000000F0B1F901222146284601F004FBBDE8C0
:10091000704000F0A8B90000000C014030B585B06F
:10092000002000900190029003900E48816941F0F0
:100930000801816180690C4D00F008004FF44064AB
:10094000049001222146284601F0E5FA0121022007
:10095000CDE90210CDE900416946284601F0F8F9D9
:1009600005B030BD00100240000C014070B51048C9
:100970000F4C104E8178C078A4F1600411EB002078
:100980004FF03335606400D54042FFF787FD2A46BB
:100990003346FFF799FCFFF792FD6064A0F2272031
:1009A000B0F53B7F01D8012000E00020607270BDEF
:1009B0006000002033330F40FEE7000070B50024D4
:1009C00000F02AF84FF40045124E04E0641CE4B233
:1009D000012003F02FFC2946304601F097FA10B1B0
:1009E000C82CF3D30FE0C82C0DD2002404E0641C03
:1009F000E4B2012003F01EFC2946304601F086FADD
:100A000018B1F02C04D3012070BDF02CEFD3FAE71D
:100A1000002070BD000C01400C4800B5816985B014
:100A200041F0080181618069694600F00800049086
:100A30004FF400400090002001900120029002201D
:100A40000390034801F084F905B000BD0010024096
:100A5000000C014070B500F0C5F800F0A7F8FFF7F2
:100A6000ADFFCC2000F0CCF8BE2000F0C9F800F0BB
:100A70008DF8044600F08AF8072805D9C043E14301
:100A8000C0B2CCB2002500E0012504EB0020FFF746
:100A9000FCFCFFF74CFD0022044BFFF715FCFFF7B1
:100AA0000EFD0DB100B270BD4042FBE70000E43F17
:100AB0000C4800B5816985B041F008018161806909
:100AC000694600F0080004904FF4004000900120B7
:100AD0000190029002200390034801F039F905B01B
:100AE00000BD000000100240000C014030B511486C
:100AF00085B0816941F00801816180694FF400444B
:100B000000F0080004900120CDE90040029002208E
:100B1000094D03906946284601F01AF90122214641
:100B2000284601F0F8F900F041F8FFF747FF05B05B
:100B300030BD000000100240000C014070B5FFF70E
:100B4000B7FF114D4FF4004400222146284601F022
:100B5000E2F9022003F06EFB01222146284601F053
:100B6000DAF9FFF759FF0C2003F064FB2146284611
:100B700001F0CCF908B1012200E00022322003F09C
:100B800059FB104670BD0000000C014070B50025F7
:100B90005FF00104FFF7D2FFC001641C40EA55007A
:100BA000E4B2C5B2082CF5D9284670BD70B5FFF780
:100BB0007FFF0B4D4FF4004400222146284601F0F0
:100BC000AAF940F2EE2003F035FB01222146284627
:100BD00001F0A1F9BDE870400F2003F02BBB00002D
:100BE000000C014010B5FFF7E1FFFFF7E7FECC2056
:100BF00000F006F8BDE81040442000F001B8000005
:100C00002DE9F0410546FFF753FF0124144FE60399
:100C100015F0010F4FEA55054FF0000231463846F6
:100C20000BD001F078F9022003F004FB01223146D9
:100C3000384601F070F93C200AE001F06CF93C20E4
:100C400003F0F8FA01223146384601F064F9022037
:100C500003F0F0FA641CE4B2082CD9D9BDE8F081A5
:100C6000000C0140704700BF00BF00BF00BF00BFC5
:100C700000BF00BF00BF00BF00BF00BF00BF00BF7C
:100C800000BF00BF00BF70472DE9F05F00219FA2A9
:100C9000084603F0D5FA9F4D64260A24A86C90FB01
:100CA000F6F090FBF4F104FB1100C2B22821002001
:100CB00003F02EFBA86C90FBF4F090FBF4F104FB26
:100CC0001100C2B23021002003F022FB92A2382191
:100CD000002003F0B5FAA86C90FBF4F104FB1100BE
:100CE000C2B24021002003F013FB8CA24821002057
:100CF00003F0A6FA687A00287ED089A2602100203D
:100D000003F09EFA88A20021022003F099FA686D90
:100D1000B0FBF6F0B0FBF4F104FB11024821022015
:100D200003F0F6FA686DB0FBF4F0B0FBF4F104FBED
:100D300011025021022003F0EBFA686DB0FBF4F1D0
:100D400004FB11025821022003F0E2FA79A260218B
:100D5000022003F075FA79A20021042003F070FA52
:100D60007849E86BB0FBF1F0B0FBF4F104FB110241
:100D70002821042003F0CCFA734FE86BB0FBF7F0A6
:100D8000B0FBF4F104FB11023021042003F0C0FA9F
:100D9000DFF8B881E96BB1FBF8F0B0FBF4F104FBCC
:100DA00011023821042003F0B3FA5BA24021042091
:100DB00003F046FADFF89891E96BB1FBF9F0B0FB6C
:100DC000F4F104FB11024821042003F0A1FAE96BBD
:100DD00042F2107AB1FBFAF0B0FBF4F104FB11021D
:100DE0005021042003F094FAE96B4FF47A7BB1FBB5
:100DF000FBF0B0FBF4F100E086E004FB11025821A7
:100E0000042003F085FAE86BB0FBF6F0B0FBF4F1D8
:100E100004FB11026021042003F07AFAE86BB0FBB6
:100E2000F4F0B0FBF4F104FB11026821042003F09C
:100E30006FFAE86BB0FBF4F104FB1102702104209F
:100E400003F066FA43A20021062003F0F9F9286CAA
:100E5000B0FBF7F0B0FBF4F104FB110230210620E7
:100E600003F056FA296CB1FBF8F1B1FBF4F004FB86
:100E700010123821062003F04BFA27A24021062049
:100E800003F0DEF9296CB1FBF9F0B0FBF4F104FBDF
:100E900011024821062003F03BFA296CB1FBFAF05D
:100EA000B0FBF4F104FB11025021062003F030FAEC
:100EB000296CB1FBFBF0B0FBF4F104FB11025821EB
:100EC000062003F025FA286CB0FBF6F0B0FBF4F135
:100ED00004FB11026021062003F01AFA286CB0FB13
:100EE000F4F0B0FBF4F104FB11026821062003F0DA
:100EF0000FFA286CB0FBF4F104FB1102BDE8F05FBF
:100F00007021062003F004BA14A2F7E6CEC2B6C8D8
:100F10003A000000000000202E000000A1E62000A2
:100F2000D5FDB3A300000000D0C4C2CACAFDBEDD17
:100F30003A0000002F6D696E00000000BEADB6C81B
:100F40003A00000000E1F5058096980040420F004D
:100F5000A0860100CEB3B6C83A200000C7E3B5B9F9
:100F6000000000004FF4805000F0E6BE064900206B
:100F7000C8610648016941F004010161016941F05D
:100F80004001016170470000680D00200020024010
:100F9000064A0021D16106490A6942F002020A614B
:100FA0004861086940F0400008617047680D002002
:100FB00000200240044B0022DA61044A136943F026
:100FC0000103136101807047680D0020002002407A
:100FD00014480022C168CB06134904D5CA6942F0FF
:100FE0000202CA611022C3685B0705D5CB6943F0D2
:100FF0000103CB6142F00402C369DB0707D0CB6970
:1010000043F00403CB61C16921F00101C161A2F584
:101010008071013901D0C2607047C16921F00101BE
:10102000C161704700200240680D002070B5054680
:1010300000F076FF0646114C09E0681C07D025B188
:1010400000F06EFF801BA84201D9032070BDE0684C
:10105000C007F2D1E068800601D52020E060E0689A
:10106000C00605D4E069C00702D1E068400703D597
:10107000FFF7AEFF012070BD002070BD00200240D0
:1010800070B52A4886B0816941F0080181618069A4
:10109000274E00F00800049001222021304600F085
:1010A0003AFF01228021304600F035FF0122140270
:1010B0002146304600F02FFF0122550229463046D6
:1010C00000F029FF01222946304600F024FF0122CA
:1010D0001021304600F01FFF40200121CDE9000122
:1010E0000220CDE902106946304600F031FE802032
:1010F00000906946304600F02BFE69463046009469
:1011000000F026FE69463046009500F021FE1020D2
:1011100000906946304600F01BFE20200090694692
:10112000304600F015FE06B070BD00000010024011
:10113000000C01400B4800B5816985B041F0080101
:1011400081618069694600F00800049020200090C9
:1011500001200190029002200390034800F0F8FD66
:1011600005B000BD00100240000C01400B4800B566
:10117000816985B041F0080181618069694600F0AC
:10118000080004902020009000200190029002208E
:101190000390034800F0DCFD05B000BD00100240E4
:1011A000000C01402DE9F04FBA49002091B04A7877
:1011B000012A6FD100224A70B749401CC0B20A5CB4
:1011C0000D2A05D00A1852780A2A01D05028F4D3E3
:1011D0002B285FD3084410F8052C2C2A5AD110F87C
:1011E000060C412856D1AC48AD4C43F6095642781E
:1011F00090F814E0417D0D9190F81C90817EC37EA3
:101200000693C379A54D303B6343047A6FF02F0CEE
:10121000744303EB84131D44037BC47B303B03EB1B
:101220004306C6EBC31304EBC304437B642673433A
:10123000867B90F817A006EB860603EB46031C445A
:10124000437A867A303B03EB83030CEB43031E4463
:10125000877D90F82330039390F8223090F8258012
:10126000303B03EB830B90F824304FF0D00C303B35
:1012700003EB83030CEB4303A4F5A05443448078B1
:10128000D03C03F0FF08472A05D0422A08D0472A5D
:1012900003D0F6E0FBE04E2804D050287BD0F0E0ED
:1012A0004428F6D17C487F4A7F4BC07C303850437D
:1012B0000EFB03F200EBC2120D9843F6095358439C
:1012C00002EB8012794810440090734A6420414335
:1012D000527E0698303A02EB4203C3EBC21200EB97
:1012E000800009EBC20201EB40001044A0F5A050C1
:1012F000D038FFF7D3F84FF033326D4BFFF756F885
:1013000081465046303F07EB87026FF02F0A049169
:101310000AEB42010844FFF7C1F8664A664BFFF743
:1013200045F84A46049BFEF728FFFFF7E7F8014619
:101330000098584F0844F8632046FFF7AFF84FF085
:1013400033325B4BFFF732F8044689463046FFF7ED
:10135000A5F8584A584BFFF729F822464B46FEF7A6
:101360000CFFFFF7CBF8284438644B4890F8211065
:1013700090F82000303800EB8002D82000EB4200CB
:101380000844B87003980AEB4B010844F87087F8DA
:10139000048076E0FFE7434AAEF130005043424B11
:1013A0000D9A30395A4300EBC21043F609525743A5
:1013B00000EB87123D4802443748009201EB41029E
:1013C000407FC2EBC11100EBC10206986421484383
:1013D00009EB890100EB41001044A0F5A050D03882
:1013E000FFF75CF84FF03332314BFEF7DFFF8146F9
:1013F00029480191017EAAF1300000EB80026FF0D4
:101400002F0A0AEB42000844FFF748F8294A2A4B02
:10141000FEF7CCFF4A46019BFEF7AFFEFFF76EF8E2
:10142000009A1C4F1044F8632046FFF737F84FF03E
:1014300033321F4BFEF7BAFF044689463046FFF7AA
:101440002DF81C4A1C4BFEF7B1FF22464B46FEF717
:1014500094FEFFF753F828443864D822039802EB2F
:101460004B010844B8700C4887F8038090F82710A7
:1014700090F82600303800EB80020AEB4200084466
:101480003871044842F21071C1830121C17511B055
:10149000BDE8F08F0000002068090020009423FDC3
:1014A0008096980000E1F5052D310100005C87E091
:1014B0003333E33F691D554D10750F3F2DE9F04F54
:1014C000FE4C00262046217E407E85B04FF47A797E
:1014D000012909D04FF4FA61A165A17E012928D024
:1014E000667605B0BDE8F08F06281FD2DFE800F071
:1014F00003070E12161A64230422F1A102E06423EA
:101500000622F1A1F24802F043F80FE0642313220F
:10151000F0A1F7E764230B22F3A1F3E764230A2287
:10152000F4A1EFE726766676A676E676C4F85890BC
:10153000D7E7E27E03271A2182B1E04D4FF046083B
:10154000683540F2DC5A012A37D0022AC9D1052871
:10155000C7D2DFE800F03AFDFC29FB000528C0D225
:10156000DFE800F003071E22280064230B22DEA11F
:101570006EE164230922E2A1D54802F009F80120B6
:1015800000F008FBCD4964230B226831D04801F0FC
:10159000FFFF012000F0FEFA64230322DBA157E1E4
:1015A00064230722DAA11AE28DF8001064230122D5
:1015B00069464DE16676A67693E7052891D2DFE885
:1015C00000F004080C03C500EEE764230B22D2A14F
:1015D0003EE164230D22D3A13AE164230C22D5A17C
:1015E000BB4801F0D5FF012000F0D4FA68788DF8EF
:1015F000000028788DF80100E8788DF80200A878BE
:101600008DF8030068798DF8040028798DF80500BD
:10161000E8798DF80600A8798DF80700687A8DF8CA
:101620000800287A8DF809008DF80A80A87A8DF8CC
:101630000B0064230C226946A54801F0A9FF012094
:1016400000F0A8FA64230822BEA1A14801F0A0FF7F
:10165000012000F09FFABEA002F060FDE08B0028A0
:1016600077D0C24802F05AFDC1A002F057FDC14830
:10167000216C0A25B1FBF0F0B0FBF5F105FB110080
:10168000303002F03FFDBAA002F048FDDFF8E882FA
:10169000216CB1FBF8F0B0FBF5F105FB1100303027
:1016A00002F030FDB5A002F039FDDFF8D8A2216CC0
:1016B000B1FBFAF0B0FBF5F105FB1100303002F0A0
:1016C00021FDABA002F02AFD216C42F2107BB1FBA0
:1016D000FBF1B1FBF5F005FB1010303002F012FD0C
:1016E000A3A002F01BFD206C4E46B0FBF6F0B0FB51
:1016F000F5F105FB1100303002F004FD9CA002F072
:101700000DFD216C4FF06409B1FBF9F0B0FBF5F170
:1017100005FB1100303002F0F5FC95A002F0FEFC54
:10172000206CB0FBF5F0B0FBF5F105FB110030309B
:1017300002F0E8FC8EA002F0F1FC206CB0FBF5F1A9
:1017400005FB1100303002F0DDFC03E04CE183E0EA
:101750007BE078E08CA002F0E1FC85A002F0DEFCEA
:101760009049E06BB0FBF1F0B0FBF5F105FB110027
:10177000303002F0C7FC7EA002F0D0FC7D48E16B67
:10178000B1FBF0F0B0FBF5F105FB1100303002F0D9
:10179000B9FC77A002F0C2FCE16BB1FBF8F0B0FB42
:1017A000F5F105FB1100303002F0ACFC73A002F043
:1017B000B5FCE16BB1FBFAF0B0FBF5F105FB1100F4
:1017C000303002F09FFC6AA002F0A8FCE16BB1FB94
:1017D000FBF0B0FBF5F105FB1100303002F092FC9C
:1017E00063A002F09BFCE06BB0FBF6F0B0FBF5F100
:1017F00005FB1100303002F085FC5DA002F08EFC8C
:10180000E16BB1FBF9F0B0FBF5F105FB11003030F5
:1018100002F078FC56A002F081FCE06BB0FBF5F022
:10182000B0FBF5F105FB1100303002F06BFC50A06D
:1018300002F074FCE06BB0FBF5F105FB11003030F9
:1018400002F060FCCEE058480CE764230C2257A15C
:101850001F4801F09DFE44E664230C2235A11C487C
:1018600001F096FE012000F095F968788DF80000EF
:1018700028788DF80100E8788DF80200A8788DF8B6
:10188000030068798DF8040028798DF80500E8795F
:101890008DF80600A8798DF80700687A8DF80800A1
:1018A000287A8DF809008DF80A80A87A8DF80B0047
:1018B00064230C226946064880E0000000000020F6
:1018C00041540D0A00000000415445310D0A00004A
:1018D000E800002041542B434E4D493D332C322C1F
:1018E000322C302C310D0A0041542B434D47463DDC
:1018F000310D0A0041542B434F50533F0D0A000055
:1019000041542B434D47533D22000000220D0A0055
:1019100053657420456E640041542B434D47463D4A
:10192000300D0A0041542B434D47533D3131370DA3
:101930000A0000003030313130303044393136382F
:1019400000000000303030384139363600000000E9
:101950003830303134454241363435343530313227
:1019600034453836333030320000000098480000EB
:10197000303033008096980040420F0030303245BE
:1019800030303300A0860100303032303030323019
:1019900030303230374543463545413630303341BB
:1019A0000000000000E1F505EC48000041542B4325
:1019B0004D47533D33390D0A0000000001F0E8FDAA
:1019C000012000F0E7F8642308220DA10F4801F080
:1019D000DFFD012000F0DEF8642330220CA10B486B
:1019E00001F0D6FD67767CE564230B22AFF2081187
:1019F000064801F0CDFD504600F0CCF8DAE50000D5
:101A0000303030384139313800000000E800002023
:101A1000383030313465626135646632376563660B
:101A2000383133313739626238646363353031328B
:101A30003732623636303031333030323330303254
:101A40000000000070B52B4D4FF0000205F15C0462
:101A5000287AA4F137010028274828D001F004F89B
:101A600000B1FEE7234900225C31234800F09AFFD1
:101A700000B1FEE743F2F22201211F4800F062FEAE
:101A8000E27803211C4800F05DFE627804211A48C8
:101A900000F058FEA2780521174800F053FE627846
:101AA0000621154800F04EFE0020287270BD00F09F
:101AB00098FE104900225C310F4800F06BFE0D4883
:101AC000253080780028F1D1E27803210A4800F01F
:101AD00039FE62780421084800F034FEA27805211E
:101AE000054800F02FFE6278BDE8704006210248EC
:101AF00000F028BE000000209400002010B590F8EF
:101B000021100024022903D00421816301243DE037
:101B100001680A6822F00E020A6001680A6822F071
:101B200001020A601A4A0168914201D1012121E0B3
:101B3000174A1432914201D110211BE0144A283275
:101B4000914201D1891515E0114A3C32914201D1EF
:101B500089140FE00E4A5032914202D14FF4803185
:101B600008E00B4A6432914202D14FF4801101E047
:101B70004FF08071064A083A5160012180F8211027
:101B8000002180F82010416B01B18847204610BD2C
:101B90000800024070B5044600F0C2F90546601C1A
:101BA00002D004480078044400F0BAF9401BA04277
:101BB000FAD370BD800000202DE9F0470546264885
:101BC0000F460126017E01290FD0012181460176B1
:101BD0002868DFF888804CF25034022808D0A246EA
:101BE0002046FFF723FAA8B131E00220BDE8F087D4
:101BF0002046FFF71BFA08BB0120FFF7B7F9204684
:101C0000FFF714FAD8F81010064621F00401C8F8BE
:101C100010101CE04FF0FF303860AC6811E0204637
:101C2000FFF7B6F95046FFF701FAD8F81010060092
:101C300021F00201C8F8101001D03C6007E004F563
:101C40008064D5E9020100EB8120A042E7D80021A1
:101C500089F818103046C9E7680D002000200240BE
:101C60000348016941F080010161002070470000D4
:101C7000002002402DE9F05F07461C4888460024FA
:101C8000017E15461E46012909D0012181460176B3
:101C90004CF2503A5046FFF7C9F918B122E0022041
:101CA000BDE8F09F012F02D0022F00D00427D346B9
:101CB000DFF83CA0220128463146FEF733FA81B214
:101CC00008EB4400FFF776F95846FFF7AFF9DAF86A
:101CD000102022F00102CAF8102018B9641CE4B2E6
:101CE000BC42E7D3002289F81820D9E7680D00200C
:101CF00000200240064900200A69120607D5054A5D
:101D00004A60054A4A600969090600D50120704702
:101D10000020024023016745AB89EFCD0548002133
:101D2000C27B12B1C173017470470122C273027485
:101D3000C164704700000020044910B50A680242DF
:101D400002D00860FFF7EAFF10BD00001404014054
:101D50002DE9F84FDFF890A100220AF1040B144698
:101D600001274FF00F090BF1040E00BF0B6807FAB3
:101D700004F52B40AB4274D1DFF870C14E68A6EB7E
:101D80000C0866452BD00DDC032E34D005DC36B3B1
:101D9000012E19D0022E2FD11BE0112E16D0122E9B
:101DA0002AD119E0B8F5881F19D006DCB8F5803FB4
:101DB00015D0B8F5801F1FD111E0B8F5001F0ED067
:101DC000B8F5041F18D10AE0CA6815E0CA68121DE8
:101DD00012E0CA6808320FE0CA680C320CE08A6868
:101DE0002AB1012A4FF0080203D0456104E0042221
:101DF00002E0056100E00022FF2B01D8064601E069
:101E000000F104064FEA840501D9A5F12005D6F8B2
:101E100000C009FA05F82CEA080C02FA05F54CEAAC
:101E2000050CC6F800C04D68ED0057D5304DAE69C1
:101E300046F00106AE61AD6924F0030605F0010528
:101E400000952C4D06EB050CDCF80850A6074FEA70
:101E5000167809FA08F6B543274EB04202D100269B
:101E600010E03BE0254EB04201D101260AE0244EAD
:101E7000B04201D1022605E0224EB04201D1032634
:101E800000E0042606FA08F62E43CCF808604D68F8
:101E9000DAF80060ED03554601D51E4300E09E438D
:101EA0002E604D68DBF80060AD035D4601D51E4332
:101EB00000E09E432E604D68DEF80060ED0275463E
:101EC00001D51E4300E09E432E604D68AD020E4DCD
:101ED0002E6801D51E4300E09E432E60641C102C2A
:101EE000FFF444AFBDE8F88F00040140000011107A
:101EF000001002400000014000080140000C0140B9
:101F000000100140001401400C04014080680840AA
:101F100000D0012070470AB1016170470904FBE756
:101F200001488068704700008000002002488168F6
:101F3000027811448160704780000020074810B586
:101F4000016841F010010160032000F073F80020E7
:101F500000F006F800F024F8002010BD0020024038
:101F600070B50D4D04464FF47A712878B1FBF0F04E
:101F70000A490968B1FBF0F000F0E9FD48B9102CFE
:101F800007D200222146501E00F034F800206C6079
:101F900070BD012070BD0000800000208C0000207A
:101FA0000C4808B5816941F001018161816901F046
:101FB00001010091C16941F08051C161C06900F027
:101FC000805000900448416821F0E06141F00071C8
:101FD000416008BD001002400000014000F01F02F7
:101FE000012191404009800000F1E020C0F800117B
:101FF00070470000F0B40E4B1B680C46C3F302237D
:10200000C3F10705042D00D90425191D072901D2A4
:10201000002300E0DB1E012606FA05F1491E2140DF
:1020200099409E40761E16403143F0BC01F0D9BC69
:102030000CED00E0064900F0070208684FF6FF03C8
:10204000184040EA0220034A10430860704700002D
:102050000CED00E00000FA0501490120086270471C
:1020600000000E4210B529A401461DCC86B08DE8B3
:102070001D002AA02A4C006804900020012923D0CA
:1020800002293AD010291DD161682268D20119D5E0
:10209000C1F38342C9031DF8020009D5616804AA8F
:1020A000C1F34041515C1F4AB2FBF1F1484301E0EA
:1020B0001D4948436168490204D440005FF00301B0
:1020C000B0FBF1F006B010BD226AC2F30121012974
:1020D00003D1920701D5C803F4E7022905D1626A4A
:1020E000920702D549F64040ECE70329EAD121687E
:1020F0008903E7D54FF22440E4E700F053F9616823
:10210000C1F38131491C4900DAE7000002030405EC
:10211000060708090A0B0C0D0E0F10100102000033
:102120000010024000127A0000093D002DE9F8433A
:1021300005460078354CC00754D0E0690026C00041
:1021400008D4E06940F08050E061E069012600F0C9
:10215000805000902E480168C90512D4016880465D
:1021600041F480710160FFF7DBFE074605E000BF28
:10217000FFF7D6FEC01B642823D8D8F80000C0059E
:10218000F6D5206A10F4407021D0A98801F440717E
:1021900081421CD0206A1F49012220F440700A604D
:1021A00000220A602062C00711D0FFF7B9FE07467F
:1021B00041F2883808E000BFFFF7B2FEC11B41457D
:1021C00002D90320BDE8F883206A8007F4D5206A8D
:1021D000696820F44070084320621EB1E06920F075
:1021E0008050E0612878800705D56068A96820F4F0
:1021F0004040084360602878C00605D56068E968FB
:1022000020F48000084360600020DBE700100240FB
:1022100000700040400442422DE9F047DFF854814D
:1022200005460E46D8F8000000F00700B0420CD278
:10223000D8F8001021F007013143C8F80010D8F891
:10224000000000F00700B0426FD128684A4C8107B7
:1022500012D5400703D5606840F4E06060602878DC
:10226000000703D5606840F4605060606068A9684A
:1022700020F0F000084360602878C00744D0686808
:10228000012816D02168022816D0890700294CDAC7
:10229000616821F0030101436160FFF741FE696855
:1022A000074641F2883001290ED00229814618D014
:1022B00026E021688903E9E78901E7E7FFF730FEB7
:1022C000C11B494501D918E081466068C0F381000F
:1022D0000128F3D118E000BFFFF722FEC11B4945DA
:1022E0000BD86068C0F381000228F5D10CE000BF74
:1022F000FFF716FEC11B494502D90320BDE8F08750
:10230000606810F00C0FF3D1D8F80010404601F0CF
:102310000701B1420BD9016821F007013143016087
:10232000006800F00700B04201D00120E6E72878FD
:10233000400705D56068E96820F4E0600843606004
:102340002878000706D56068296920F4605040EAC3
:10235000C100606000F036F86168084AC1F30311FB
:10236000515CC840064908600020FFF7F9FD0020D5
:10237000C4E7000000200240001002408048000036
:102380008C0000200448054900684968044AC1F3EC
:102390000221515CC84070478C00002000100240B0
:1023A000904800000448054900684968044AC1F3A0
:1023B000C221515CC84070478C00002000100240D0
:1023C0009048000012A185B00FC98DE80F0014A03D
:1023D000144A006804905168134801F00C03042B60
:1023E00010D0082B0ED1C1F38343C9031DF803009D
:1023F0000AD5516804AAC1F34041515C0A4A5043CE
:10240000B0FBF1F005B0704708494843FAE7000017
:1024100002030405060708090A0B0C0D0E0F101025
:10242000010200000010024000127A0000093D0085
:102430002DE9F84F04460078B94DC00748D06868C8
:10244000C0F38100012807D06868C0F3810002282A
:1024500009D16868C00306D52868800338D560684C
:1024600000286FD034E06068B0F5803F0BD010B129
:10247000B0F5A02F11D0286820F48030286028689B
:1024800020F4802002E0286840F4803028606068F2
:1024900088B1FFF745FD064609E0286840F4802032
:1024A0002860F0E7FFF73CFD801B642875D828689A
:1024B0008003F7D50CE0FFF733FD064605E000BFCB
:1024C000FFF72EFD801B6428F0D828688003F7D41E
:1024D0002078944E80074FF001094FF000083BD55B
:1024E000686810F00C0F07D06868C0F381000228FC
:1024F00009D16868C00306D42868800714D520690C
:1025000001281FD110E02069B0B1C6F80090FFF794
:1025100007FD074605E000BFFFF702FDC01B0228CC
:10252000C4D828688007F7D52868616920F0F800CA
:1025300040EAC10028600FE0C6F80080FFF7F0FC19
:10254000074606E0E9E000BFFFF7EAFCC01B0228EF
:1025500023D828688007F7D4207800072CD5724844
:10256000A169D9B1C0F80090FFF7DAFC074604E092
:10257000FFF7D6FCC01B02280FD8686A8007F7D582
:102580006A484FF4FA510068B0FBF1F0009000BFC8
:102590000098411E0091FAD20EE080E0C0F8008061
:1025A000FFF7BEFC074604E0FFF7BAFCC01B022899
:1025B00075D8686A8007F7D42078400760D5E86945
:1025C0000027C00008D4E86940F08050E861E8695D
:1025D000012700F08050009055480168C90513D4C8
:1025E0000168834641F480710160FFF799FC8246DF
:1025F00006E000BFFFF794FCA0EB0A0064284ED869
:10260000DBF80000C005F5D5E06801280AD008B164
:10261000052813D0286A20F001002862286A20F0DB
:10262000040002E0286A40F001002862E06841F2FC
:10263000883B98B1FFF774FC82460BE0286A40F0B3
:1026400004002862EEE700BFFFF76AFCA0EB0A0176
:1026500059455AD8286A8007F6D50CE0FFF760FC88
:10266000824605E0FFF75CFCA0EB0A0159454CD817
:10267000286A8007F6D41FB1E86920F08050E8612D
:10268000E06988B36968C1F38101022945D0022855
:10269000C6F8608004D0FFF743FC044638E034E01D
:1026A000FFF73EFC074604E0FFF73AFCC01B022898
:1026B0002BD828688001F7D4206AB0F5803F05D177
:1026C0006868A16820F4003008436860D4E9080114
:1026D0000843696821F4741108436860C6F8609083
:1026E000FFF71EFC044606E015E000BFFFF718FCEC
:1026F000001B022809D828688001F7D50BE000BF2D
:10270000FFF70EFC001B022802D90320BDE8F88F5A
:1027100028688001F4D40020F8E70120F6E70000E3
:102720000010024000004242800442428C0000201F
:1027300000700040024850F8210080B2704700004D
:10274000006C0040024800EB810091B201607047CC
:10275000006C00407047704710B50446006801687F
:10276000C90716D04168C90713D040684007204602
:1027700007D5FFF7F0FF21686FF0040048600420E0
:1027800002E0FFF7E7FF0120607421686FF00100AD
:10279000486010BDF8B505004FF0000016460C4625
:1027A000009006D02CB100226946284600F019F8A6
:1027B00008B10120F8BD287B2070E87BE070697BC0
:1027C0006170A97BA17056B101F025F9E0706078C5
:1027D00001F021F96070A07801F01DF9A0700020CF
:1027E000F8BD2DE9F04791460C465FEA00084AD053
:1027F00084B3D8F800004068400744D4404601F054
:10280000B0F94FF461620546B0FBF2F1B0FBF2F3B0
:1028100002FB13503C23B0FBF3F0B5FBF2F6607003
:1028200002FB1650B0FBF3F203FB1200A070182954
:1028300031D31820B1FBF0F7B1FBF0F200FB12101E
:102840002070404601F086F9411C04D0A84202D90C
:10285000461B02E017E04FF0FF36A7EB071000EB36
:102860004000C0EB001005EBC0152946404601F0C2
:10287000C7F940B9701C01D0711900E031464046DB
:1028800001F0AAF910B10120BDE8F08739464046B1
:1028900001F0CCF800E02170B9F1000F0BD02078E6
:1028A00001F0B9F82070607801F0B5F86070A07898
:1028B00001F0B1F8A0700020E6E7000070B5040058
:1028C00003D0607C002610B105E0012070BD2674A5
:1028D000204600F043F802206074204600F01AF908
:1028E000042578BB204601F0F8F858BB2068416801
:1028F00021F007014160A06820B11748016821F06C
:10290000010101601448001F0168A26821F4607190
:10291000114301606068411C04D10120FFF7A2FB54
:1029200080B1401E21688A6822F00F0242EA1042FC
:102930008A602168CA6860F30F02CA60204601F00D
:10294000E7F808B16574C0E7E67301206073A0730F
:102950006074002070BD0000306C004008B5006855
:102960000D49884217D1FFF777FB0C48C16941F048
:102970000061C161C0690A4900F000600090012057
:102980000860002211460320FFF734FBBDE8084031
:102990000320FFF723BB08BD0028004000100240C1
:1029A0003C0442422DE9F0410D4604003BD0C5B342
:1029B000207C01283AD04FF0010884F810800220D2
:1029C0006074E87872B301F01DF8E073687801F084
:1029D00019F86073A87801F015F8A073C2B2617B92
:1029E000E07B01F0CEF820732870204601F0B9F8A2
:1029F0004FF46161B0FBF1F1002518292DD918229F
:102A0000B1FBF2F1A1EB011101EB4101C1EB0111AD
:102A100000EBC1163146204601F0F2F80427C8B990
:102A20000BE000E004E00120BDE8F0810220FBE7BC
:102A3000E07368786073A878CFE7204601F08AF8E1
:102A4000411C0AD0B04208D206490144204601F098
:102A5000C3F810B167742574E5E784F81180257414
:102A60000020E1E7805101002DE9F0410D4604000E
:102A700024D01DB3207C012823D04FF0010884F816
:102A80001080022060742878EAB100F0BBFF4FF498
:102A9000616100FB01F6687800F0B4FFC0EB001044
:102AA00006EB8006A87800F0ADFF351829462046D1
:102AB00001F0A6F80026042710BB0FE00120BDE8B6
:102AC000F0810220FBE74FF4616148436978C1EB74
:102AD000011100EB8100A9784518E7E720684168FB
:102AE00021F005014160204601F034F8411C0AD074
:102AF000A84208D206490144204601F06DF810B101
:102B000067742674DAE784F8118026740020D6E70B
:102B10008051010070B504000AD02068416821F09E
:102B200008014160FFF7FCF905464FF47A7608E0AA
:102B3000012070BDFFF7F4F9401BB04201D903201A
:102B400070BD206840680007F4D5002070BD10B546
:102B5000401EB0F1807F01D3012010BD4FF0E02472
:102B600060610F21601700F03CFF0020A06107208A
:102B70002061002010BD7047704730B590F83C20B0
:102B8000012A20D0012280F83C20022380F83D3029
:102B900003685C6824F070045C6003685C680D681E
:102BA0002C435C6003689C6824F080049C6003688C
:102BB0009C6849680C439C6080F83D20002180F8A7
:102BC0003C10084630BD022030BD10B5040003D0D3
:102BD00094F83D0010B107E0012010BD002084F8FA
:102BE0003C00204600F00CF8022084F83D00211D36
:102BF000206801F093F8012084F83D00002010BD0A
:102C000008B500680B49884212D10B48C16941F0F0
:102C10000401C161C069002200F004000090114667
:102C20001E20FFF7E7F9BDE808401E20FFF7D6B9E0
:102C300008BD000000080040001002400168CA689A
:102C400042F00102CA600068016841F001010160C0
:102C50000020704770B5044690F83C00012817D05A
:102C6000012584F83C50022084F83D0020688268E9
:102C700022F0770222F47F4282600868502837D021
:102C80000DDC202859D005DC88B3102841D151E053
:102C9000022070BD302853D040283AD13FE0602850
:102CA0002ED070280BD0B0F5805F03D0B0F5005F58
:102CB0002FD110E02068816821F0070115E0CB6872
:102CC000D1E90121206801F05FF82168886840F0AF
:102CD000770088601DE0CB68D1E90121206801F010
:102CE00053F82068816841F48041816011E01EE062
:102CF000CA684968206801F059F85021206806E048
:102D0000CA684968206801F062F86021206801F013
:102D100045F884F83D50002084F83C0070BDCA6836
:102D20004968206801F042F840212068EFE700215F
:102D30002068ECE710212068E9E720212068E6E719
:102D400030212068E3E7704770B5044600680169E8
:102D50004FF00005C943890715D4C168C9438907E5
:102D600011D4E91E01610120207720688069800765
:102D7000204602D0FFF7E7FF04E000F098F8204675
:102D800000F096F8257720680169C943490717D4F0
:102D9000C168C943490713D46FF0040101610220DF
:102DA00020772068806910F4407F204602D0FFF72A
:102DB000CAFF04E000F07BF8204600F079F82577A0
:102DC00020680169C943090716D4C168C9430907C6
:102DD00012D46FF008010161042020772068C069D7
:102DE0008007204602D0FFF7AEFF04E000F05FF856
:102DF000204600F05DF8257720680169C943C906BF
:102E000017D4C168C943C90613D46FF0100101611A
:102E1000082020772068C06910F4407F204602D047
:102E2000FFF791FF04E000F042F8204600F040F880
:102E3000257720680169C943C90708D1C168C9431A
:102E4000C90704D1891E0161204600F033F82068CB
:102E50000169C943090609D4C168C943090605D4F3
:102E60006FF0800101612046FFF785FE206801694F
:102E7000C943490609D4C168C943490605D46FF05E
:102E800040010161204600F0E5F820680169C9436E
:102E900089060BD4C168C943890607D46FF02001A5
:102EA00001612046BDE87040FFF766BE70BD704707
:102EB000704700002DE9F041634988427ED1634CA0
:102EC000A06D08B1401EA065E06C0227401CE064C4
:102ED000A17D00250126012957D1217C01290ED091
:102EE000206D40F28332A0F1650191424DD24EF641
:102EF0006021B1FBF0F2B42A03D3606D04E02065D9
:102F000043E0B1FBF0F06065642801D9143806E0B5
:102F10005A2801D90A3802E03C2801D208306065FD
:102F2000607C30B1012809D002280CD003282BD1B5
:102F30000FE094F85400A074667425E094F85400EF
:102F4000E074677420E094F85400207503206074E6
:102F50001AE0A27C617D606D5318834213D9521A26
:102F6000824210D2E27C531883420CD9521A824218
:102F700009D2227D5318834205D9511A814202D2C7
:102F8000A5750520607365742565A06B4FF47A788C
:102F9000401C0A21B0FBF1F2A06301FB120020BB30
:102FA00000F07AFBA06A08B1401EA062E08B08B175
:102FB000401EE083607A30B1258400E041E0A07AD1
:102FC000012813D017E0208CA0F57A71414505D275
:102FD000A07A50B9A672E676A6760CE040F2DC51F3
:102FE000884201D2401C2084A57204E0A07E10B962
:102FF000A676A572E776A16B3222B1FBF2F002FB56
:103000001010A8B9A07A0128607B01D008B909E0A6
:1030100010B1C0B2401E60730D48016881F001011B
:10302000016005E00A48002201210C38FEF773FF19
:10303000A06B404505D3A563A07908B1401EA071DF
:10304000A673BDE8F0810000A80000200000002069
:103050000C0C01407047704770B502680446106858
:10306000D168536910F00F0F51D003F0010501F43E
:10307000907635435DD0C20705D0CA0503D5E26B13
:1030800042F00102E263420705D5DA0703D0E26BA2
:1030900042F00202E263820705D5DA0703D0E26B51
:1030A00042F00402E263020705D5DA0703D0E26BBF
:1030B00042F00802E263E26B002A34D0800604D5B5
:1030C000880602D5204600F0AAFE20684069E16B20
:1030D000C0F3801001F008010143204624D000F025
:1030E00090FE2068416949061AD5416921F04001E6
:1030F0004161606BA0B11B494163606BFEF7FEFC50
:10310000002810D0606B416BBDE870400847830613
:103110000FD58B060DD52046BDE8704000F07FBE70
:103120002046FFF798FF70BDFFF795FF0020E06392
:1031300070BD030606D50B0604D52046BDE87040D9
:1031400000F070BF4006F3D54806F1D5D16820469F
:1031500021F04001D160202184F8391000F075FA87
:1031600070BD0000F33D000070B5040004D094F879
:103170003900002510B106E0012070BD84F83850F8
:10318000204600F023F8242084F839002068C16824
:1031900021F40051C160204600F08CFE20680169D6
:1031A00021F4904101612068416921F02A014161C7
:1031B0002068C16841F40051C160E563202084F8B3
:1031C000390084F83A00002070BD000070B586B068
:1031D000002400940194029403942E4E03682E4917
:1031E000022003222D4DB34226D18B6943F4804344
:1031F0008B618B6903F4804304938B6943F0040370
:103200008B618969039201F0040104910102CDE907
:10321000001069462846FEF79BFD2815CDE90004FD
:10322000694628460294FEF793FD002211462520A8
:10323000FEF7E0FE252028E0194EB34227D1CB69E6
:1032400043F40033CB61CB6903F4003304938B69FF
:1032500043F004038B618969039201F00401049136
:103260000421CDE9001069462846FEF771FD0820CB
:10327000CDE90004694628460294FEF769FD002264
:1032800011462620FEF7B6FE2620FEF7A7FE06B062
:1032900070BD0000003801400010024000080140ED
:1032A0000044004090F83A30202B22D1F9B1F2B11D
:1032B00090F83830012B1CD081628285C2850021B4
:1032C000C163222280F83A2080F838100168CA6869
:1032D00042F48072CA6001684A6942F001024A61A0
:1032E0000068C16841F02001C160002070470120E2
:1032F00070470220704700002DE9F0470746A148BB
:10330000DFF8849201260025A9F1220487427DD1AD
:1033100000F18001207899F800200A54401CC0B2C6
:10332000207022460D54537E94F818805A1C02F0E7
:10333000FF0C0A22B8F1010F07D0E3B3022B46D0ED
:10334000032B44D0012B7AD082E043B1012B06D06D
:10335000022B04D0032B02D0042B19D078E00428D0
:1033600076D30B1813F8018CB8F10A0F70D113F84B
:10337000028CB8F10D0F6BD113F8038CB8F14B0F21
:1033800066D113F8043C4F2B62D184F819C05EE07B
:1033900019285DD30B1813F801CCBCF10A0F57D1D3
:1033A00013F802CCBCF10D0F52D113F803CCBCF1D1
:1033B000220F4DD100E00AE013F804CCBCF1450F18
:1033C00046D113F80B3C412B42D105233EE00428A3
:1033D00016D30B1813F8018CB8F10A0F10D113F89B
:1033E000028CB8F10D0F0BD113F8038CB8F14B0F11
:1033F00006D113F8043C4F2B02D184F819C0A26502
:10340000072825D30B1813F801CC00E068E0BCF1C5
:103410000A0F1DD113F802CCBCF10D0F18D113F80F
:1034200003CCBCF1520F13D113F8073C452B0FD13D
:10343000637E032B0CD1657609E000E008E0E8B379
:103440000B1813F8013C3E2B02D102236376A265D0
:10345000022839D3014411F8022C0D2A34D111F875
:10346000012C0A2A30D117282DD311F8170C502817
:1034700029D111F8160C482825D111F8110C532820
:1034800021D111F80E0C3A281DD13F4811F80D2D0D
:10349000463002704A7842708A788270CA78C27068
:1034A0000A7902714A7942718A798271CA79C27144
:1034B0000A7A02724A7A4272897A00E004E08172E2
:1034C000A676E57626772570E56201222E492D48FD
:1034D000FFF7E8FEE16A491CE16208B10329F4D371
:1034E0002848403087424AD1216B00F5886099F81E
:1034F00001204254491CC1F3090121634F46455440
:1035000002292ED3421812F8023C0D2B29D112F8B1
:10351000012C0A2A25D12E290BD30278242A08D17E
:10352000C278472A05D102794C2A02D142794C2A25
:1035300005D0062914D30178242907D010E01349B7
:1035400001F58060FCF710FE667009E0C17847293C
:1035500006D10179472903D14079412800D166710C
:103560002563656307480122791C4030FFF79AFE06
:10357000616B491C6163002801D00329F2D3BDE8C7
:10358000F0870000E80000202200002068050020ED
:103590002DE9F843044690F839001F4616460D46BB
:1035A000202850D1A5B19EB194F8380001284AD006
:1035B000012084F838004FF00008C4F83C80212036
:1035C00084F83900FEF7ACFCA6848146E68426E048
:1035D0000120BDE8F883E08C401EE084A0684B46E3
:1035E000B0F5805F4FF000024FF080012046009759
:1035F00003D000F048FDE8B90DE000F044FDC8B983
:1036000028882168C0F308004860206908B16D1C53
:1036100005E0AD1C03E0216815F8010B4860E08C63
:103620000028D8D14B46002240212046009700F0C8
:103630002AFD08B10320CCE7202084F8390084F863
:1036400038800020C5E70220C3E77047FEE710B5C9
:10365000FDF764F94FF4FA70FEF79CFA0B21312064
:1036600000F0E3FA08212C2000F0DFFA08212D20D9
:1036700000F0DBFA80212E2000F0D7FA00211E2076
:1036800000F0D3FA00211F2000F0CFFA0021BDE89E
:103690001040202000F0C9BA2DE9F041114F8021DF
:1036A0003846FEF733FC00260F4C012540B1E57289
:1036B00040213846FEF72AFC58B12573BDE8F08159
:1036C000E07A0128F4D1E67203206073A575667470
:1036D000EEE7207B012801D12673657340F2D57097
:1036E0002084EBE700080140000000202DE9F043B2
:1036F00085B000252D4800950195029503958169B7
:1037000041F004018161816901F004010491816942
:1037100041F0080181618069DFF8948000F00800C1
:103720000490002201214046FEF7F5FBDFF884906B
:103730004FF40067002239464846FEF7ECFB802034
:10374000CDE900050124694602944846FEF700FBD6
:103750004020CDE90005694602944846FEF7F8FA94
:103760000226CDE902460094694640460194FEF7E0
:10377000EFFA200300901048CDE901046946404665
:10378000FEF7E6FA01AA009782E87000694648460B
:10379000FEF7DEFA002211462820FEF72BFC282037
:1037A000FEF71CFC05B0BDE8F083000000100240ED
:1037B000000C0140000801400000211070B52748AE
:1037C000254901604FF0FF31416000218160FFF722
:1037D00075F800B1FEE701212048FEF7ABFF43F288
:1037E000F2251F4CA84215D00620207012206070D0
:1037F0000320A0701720E070012221461748FFF730
:10380000D1F800B1FEE72A46BDE870400121134817
:10381000FEF798BF1348416A406A400118D503215A
:103820000E48FEF787FFE07004210C48FEF782FF88
:10383000607005210948FEF77DFFA070062107484A
:10384000FEF778FF2070002205490448FFF7AAF828
:1038500005490120086070BD002800409400002048
:103860005C00002000100240E004424210B586B027
:10387000002415480094019402940394049411497F
:10388000059401603F21C0E901144FF47A71C0E949
:1038900003148461FFF799F900B1FEE74FF48050FB
:1038A000009069460848FFF7D5F900B1FEE7049497
:1038B00004A905480594FFF760F9002800D0FEE749
:1038C00006B010BD00080040A8000020FEE7000080
:1038D00070B5214D0026287F01282ED105F16804FE
:1038E0002E7721781D4800F040FC61781C4800F0DC
:1038F0003CFCA1781B4800F038FCE1781A4800F045
:1039000034FC2179194800F030FC6179184800F046
:103910002CFCA179174800F028FCE179164800F04A
:1039200024FC217A154800F020FC617A144800F04C
:103930001CFCA17A134800F018FCE87D01280AD18C
:10394000EE751148E96B00F010FC296CBDE8704081
:103950000E4800F00ABC70BD0000002000F0000816
:1039600000000108001001080020010800300108D3
:1039700000400108005001080060010800700108C3
:10398000008001080090010800A0010800B00108B3
:1039900070B5FCF787FFA620FCF752FF3220FCF73A
:1039A0004FFFFCF77FFFA720FCF74AFF00240B4DD9
:1039B000FCF7B8FE2855052C0DD00020FCF720FFA1
:1039C000641CE4B2062CF3D3FCF78CFFBDE8704016
:1039D0000320FEF7DFB80120F0E7000060000020C0
:1039E00070470907090E002806DA00F00F0000F101
:1039F000E02080F8141D704700F1E02080F80014EA
:103A000070477047010901EB810100F00F0000EBE6
:103A10004100C0B27047002102E00A38C0B2491C20
:103A20000A28FAD2090740EA116070472DE9F041EF
:103A300004460025C07B627BA37B42E0012A16D0AE
:103A4000032A14D0052A12D0072A10D0082A0ED033
:103A50000A2A0CD00C2A0AD0042A10D0062A0ED02A
:103A6000092A0CD00B2A0AD0022A0DD028E01F2BDD
:103A70000CD30C2A05D101221346401C20E01E2B3A
:103A800004D30123521C1BE01C2B02D203F10103BF
:103A900016E011D183B29E0710D16426B3FBF6F76E
:103AA00006FB173636B94FF4C876B3FBF6F706FBBC
:103AB00017331BB91D2303E01D2B01D10322012362
:103AC0006D1C8D42BAD3D1B2E0736173DAB2A273C6
:103AD00000F057F82073BDE8F08170B50446FEF79A
:103AE0001FFA05464FF47A7606E0FEF719FA401BF6
:103AF000B04201D9032070BD206840688006F4D52B
:103B00002068416841F010014160002070BD000054
:103B100070B504460068416821F010014160FEF76D
:103B2000FFF905464FF47A7607E000BFFEF7F8F993
:103B3000401BB04201D9032070BD20684068800658
:103B4000F4D5002070BD00000148FEF705BE00005E
:103B5000940000200168086A496A89B241EA00407D
:103B60007047006881698AB2C1698BB2816989B284
:103B70008A4203D0C06961F31F40704743EA0240A4
:103B80007047F0B56424C1EBC1030927A5000726DF
:103B900003EB01130329B3FBF7F100F5FA601144BD
:103BA00001440AD2401EB0FBF4F201EB9001B0FBDD
:103BB000F5F0891A0844001D08E0B0FBF4F201EBAF
:103BC0009001B0FBF5F0891A0844801CB0FBF6F1B7
:103BD00006FB1100C0B2F0BD70B50D4606460024CC
:103BE000FFF77BFF48B93168280C08623168A8B23A
:103BF00048623046FFF78CFF00B10124204670BDBB
:103C000070B50D4606460024FFF767FF48B93168D6
:103C1000280C88613168A8B2C8613046FFF778FF88
:103C200000B10124204670BD704770B50D460446B2
:103C3000FCF738FEA620FCF703FE2046FCF700FE4A
:103C40002846FCF7FDFDBDE87040FCF74BBEFEF7D3
:103C50006DB970B594B028216846FCF77AFA142142
:103C60000AA8FCF776FA002401250F940A20009098
:103C70001020CDE9045012944FF460101094119468
:103C80000226CDE90840CDE906566846FEF7D0FB8E
:103C900000B1FEE70F20CDE90A064FF48060CDE9C0
:103CA0000C4002210AA80E94FEF7B6FA00B1FEE716
:103CB0004FF40070CDE90F500FA8FEF737FA002837
:103CC00000D0FEE714B070BD0D48016841F001015D
:103CD000016041680B4A1140416001680A4A114085
:103CE0000160016821F480210160416821F4FE0136
:103CF00041604FF41F0181600449C00308607047B0
:103D0000001002400000FFF8FFFFF6FE08ED00E0A3
:103D10000148FFF719B80000A8000020F0B50268BC
:103D2000164B174C174D4FF08047984205D0B842BC
:103D300003D0A04201D0A84203D122F070064A6805
:103D40003243984205D0B84203D0A04201D0A842E5
:103D500003D122F44074CA68224322F080044A69E5
:103D6000224302608A68C2620A688262984201D174
:103D70000969016301214161F0BD0000002C01408F
:103D8000000400400008004010B5846842EA0322A5
:103D900024F47F440A432243826010BD826822F0EB
:103DA00070020A4342F007018160704710B5036A50
:103DB000046A24F001040462846924F0F00444EAF3
:103DC000021423F00A020A438461026210BD10B596
:103DD000036A23F0100303628369046A23F47043C7
:103DE00043EA023224F0A00343EA01118261016236
:103DF00010BD10B5406A0021C185C184FFF72BF9C1
:103E000010BD0168CA6822F49072CA6001684A69EC
:103E100022F001024A61202180F83A10704710B563
:103E200090F83A10222901D0022010BD8168B1F526
:103E3000805F11D00169002901681FD0496801F035
:103E40007F03816A4A1C82620B70C18D491E09047E
:103E5000090CC18518D02BE00269816A002A02682A
:103E6000526805D0D2B20A80816A491C8162ECE7AF
:103E7000C2F308020A80816A891CF7E74A68816AEE
:103E80004B1C83620A70E0E70168CA6822F02002D6
:103E9000CA600168CA6822F48072CA6001684A690F
:103EA00022F001024A61202180F83A10FFF724FA3B
:103EB000002010BD2DE9F041044600680169E26868
:103EC00021F44051114301612169A06808436169EF
:103ED00008432168CA6841F20C639A430243CA60EE
:103EE00020684169A26921F44071114341614C4944
:103EF00020686425322688423CD1FEF753FA00EB55
:103F0000C00101EB001061688900B0FBF1F7FEF71A
:103F100049FA00EBC00101EB00106168B04689006E
:103F2000B0FBF1F0B0FBF5F06FF01801484307EB80
:103F3000800106EB0110B0FBF5F000F0F006FEF793
:103F400031FA00EBC00101EB001061688900B0FBA1
:103F5000F1F0B0FBF5F006EB0016FEF723FA00EBEC
:103F6000C00101EB001061688900B0FBF1F7FEF7BA
:103F700019FA3BE0FEF706FA00EBC00101EB001076
:103F800061688900B0FBF1F7FEF7FCF900EBC001B6
:103F900001EB00106168B0468900B0FBF1F0B0FBA6
:103FA000F5F06FF01801484307EB800106EB0110B4
:103FB000B0FBF5F000F0F006FEF7E4F900EBC0010D
:103FC00001EB001061688900B0FBF1F0B0FBF5F087
:103FD00006EB0016FEF7D6F900EBC00101EB00106E
:103FE00061688900B0FBF1F7FEF7CCF900EBC00186
:103FF00001EB001061688900B0FBF1F0B0FBF5F057
:104000006FF01801484307EB800108EB0110B0FB8B
:10401000F5F0216800F00F0030448860BDE8F081C1
:104020000038014090F83910212901D00220704752
:104030008168B1F5805F016A0BD04A1C0262026898
:1040400009785160C18C491E0904090CC1840ED045
:1040500017E009880268C1F308015160016900296D
:10406000016A02D0491C0162ECE7891CFBE7016888
:10407000CA6822F08002CA600068C16841F040014D
:10408000C160002070472DE9F041984617460E4662
:104090000446069D1DE0681C1BD02DB1FDF740FFB6
:1040A000A0EB0800A84214D92068C16821F4D0719F
:1040B000C1602068416921F001014161202084F83C
:1040C000390084F83A00002084F838000320BDE865
:1040D000F0812068006836EA000004D00020B84271
:1040E000D9D00020F3E70120F9E700000148FEF7EE
:1040F000B3BF0000E80000200148FEF7ADBF00009C
:104100002801002001B54FF6FF73012269460248DD
:10411000FFF73EFA08BD0000E800002010B5044695
:1041200002E0641CFFF7EEFF20780028F9D110BDF3
:1041300010B50B4CE06A032805D3012204F12201DB
:104140000848FFF7AFF8606B032808D30449054817
:1041500001222331BDE810404030FFF7A3B810BD65
:1041600000000020E8000020FEE730B585B00D46D5
:104170000446FDF7BFFD0020012102940090CDE927
:10418000031004A96846FDF717FD2A4600232146BF
:104190000220FDF76FFDFDF763FD05B030BD02E0C5
:1041A00008C8121F08C1002AFAD1704770470020C2
:1041B00001E001C1121F002AFBD1704770B5154EF6
:1041C000002240213046FDF7A6FE01221021304694
:1041D000FDF7A1FE5FF0000404F1B00000F0DCFA8E
:1041E000002000F0D9FA102000F0D6FA00250020B7
:1041F00000F00CFB6D1CEDB2802DF8D3641CE4B212
:10420000082CE9D33046BDE8704001224021FDF77B
:1042100082BE0000000C014010B5002141F27C5428
:1042200005E0224602235B1C9342FCDB491C8142D1
:10423000F7DB10BD00EB80004000401EFDD2704750
:104240002DE9F0438DB017460D46814600244FF00E
:1042500020082D4E51E000BFA0F1B00147290AD837
:104260003A195378A12B06D35E2041433160507830
:1042700001F2AD210CE0A0F1A10102291FD83A19E9
:104280005378A12B1BD35E20414331605078A13974
:10429000084441013160C1F30740C1F3072CCAB2A1
:1042A00001AB6146CDF8008000F0EEF801AA294686
:1042B000484600F061F8A41CE4B2103519E020383B
:1042C0005E2818D8114909AB01EB0011C1F3074072
:1042D000C1F3072CCAB2316010210091614600F091
:1042E000D3F809AA2946484600F074F8641CE4B2E1
:1042F0000835EDB201E0641CE4B2385D0028ABD1B2
:104300000DB0BDE8F08300009000002080CF0300D6
:104310000A2A1BD2DFE802F00507090B0D0F111363
:1043200015170BA210E00BA20EE00BA20CE00BA2E3
:104330000AE00BA208E00BA206E00BA204E00BA22D
:1043400002E00BA200E00BA2FFF77ABF704700006B
:104350003000000031000000320000003300000097
:104360003400000035000000360000003700000077
:1043700038000000390000002DE9F047DFF85090C8
:10438000154688460746002240214C464846FDF720
:10439000C2FD012210212046FDF7BDFD0226F9B223
:1043A00008F0FF0000F016F90024287800F02EFA3B
:1043B000641C6D1C102CF8D3761E07F10107EED19A
:1043C0004846BDE8F04701224021FDF7A4BD0000AA
:1043D000000C01402DE9F047DFF840801546894682
:1043E0000746002240214046FDF795FD0226F9B21E
:1043F000484600F0EFF80024287800F007FA641C23
:104400006D1C082CF8D3761E07F10107EFD140464A
:10441000BDE8F04701224021FDF77DBD000C0140C1
:104420002DE9F0410122174E57020024394630464B
:10443000FDF771FD00BFFCF799FE00250122202148
:104440003046FDF768FD00BF002239463046FDF7D3
:1044500062FD00BF6006040E20213046FDF756FDC8
:1044600008B1641CE4B200BF012239463046FDF7B2
:1044700052FD6D1CEDB2082DE0D3FCF75BFE20462B
:10448000BDE8F081000C01402DE9F047184D904641
:10449000894604461E46002210212846089FFDF743
:1044A0003AFD012240212846FDF735FD002269151D
:1044B0002846FDF730FD032000F046F9204600F0C5
:1044C00043F9484600F040F9404600F03DF9002429
:1044D00005E000BFFFF7A4FF3055641CE4B2BC4206
:1044E000F8D32846BDE8F04701221021FDF713BD9F
:1044F000000C014010B54FF4C870FFF78DFEFCF7BB
:10450000BFFD334C002240212046FDF704FD01226F
:1045100010212046FDF7FFFCAE2000F03DF92020E1
:1045200000F03AF9102000F037F9B02000F034F92B
:10453000C82000F031F9002000F02EF9102000F022
:104540002BF9402000F028F9812000F025F9FF2008
:1045500000F022F9A12000F01FF9A62000F01CF9BC
:10456000A82000F019F93F2000F016F9A42000F06F
:1045700013F9D32000F010F9002000F00DF9D52038
:1045800000F00AF9F02000F007F9D92000F004F952
:10459000222000F001F9DA2000F0FEF8122000F0ED
:1045A000FBF8DB2000F0F8F8202000F0F5F88D2073
:1045B00000F0F2F8142000F0EFF8AF2000F0ECF873
:1045C00020460122BDE810404021FDF7A4BC0000B8
:1045D000000C014010B5044601F1B00000F0DCF819
:1045E000102040EA141000F0D7F804F00F00BDE8E6
:1045F000104000F0D1B80000FDF7A0FCFFF729FB48
:10460000FFF774F83E483D494FF416560025016007
:10461000C0E901650C24C560C0E904548561C56129
:10462000FEF7A2FD00B1FEE7354836494030016093
:10463000C0E90165C560C0E904548561C561FEF744
:1046400093FD00B1FEE7FFF711F9FFF7B7F8C820B7
:10465000FDF7A0FAFFF74EFFFFF7B0FDFEF7F7FFFB
:10466000FCF744FA012228492548FEF71BFE26499B
:1046700023480122491C4030FEF714FE20484038F0
:10468000FEF7DCFA204C40F25236223CFCF7E2F90D
:10469000A064B042FAD003274FF6FF76FFF778F90F
:1046A000FCF764F9A06D08B9FCF708FFFFF710F9F3
:1046B000FFF73EFDFCF776FDFDF7C4F9FCF7E4FAE1
:1046C000A07B012803D1A573FCF7C4F9A064E079AD
:1046D0000028E3D00A48E571A77133460E220BA1EA
:1046E0004030FEF755FF0520FDF754FA04483346E5
:1046F00029220AA14030FEF74BFFCFE700380140E6
:10470000E8000020004400402200002024504341E3
:104710005330342C372A31450D0A000024504341D0
:104720005330332C302C312C302C302C302C302C7E
:10473000302C302C302C302C302C302C302C302A9B
:1047400030330D0A000000002DE9F041114F002424
:1047500005464FF480787E15280601D5012200E039
:10476000002241463846FDF7D6FB00BF6806050E1D
:10477000002231463846FDF7CEFB00BF012231460C
:104780003846FDF7C8FB00BF641CE4B2082CE3D335
:10479000BDE8F081000C01402DE9F0411A4D0646BC
:1047A000002280212846FDF7B6FB00224021284642
:1047B000FDF7B1FB00244FF480786F1500223946D5
:1047C0002846FDF7A8FB300601D5012200E00022B3
:1047D00041462846FDF79FFB012239462846FDF752
:1047E0009AFB00BF7600641CE4B2082CE6D30122D9
:1047F00080212846FDF78FFB2846BDE8F0410122C5
:104800004021FDF788BB0000000C01402DE9F0417C
:104810001A4D0646012280212846FDF77CFB002226
:1048200040212846FDF777FB00244FF480786F1570
:10483000002239462846FDF76EFB300601D50122DD
:1048400000E0002241462846FDF765FB012239467B
:104850002846FDF760FB00BF7600641CE4B2082C1C
:10486000E6D3012280212846FDF755FB2846BDE806
:10487000F04101224021FDF74EBB0000000C014039
:104880000000000000000000010203040607080900
:104890000000000001020304354446323833423739
:1048A00035334436303034373030353030303533CE
:1048B0003446453135334637303032433736454557
:1048C0003532344435423941344634443537333057
:1048D00035373430303033413030323030303230B0
:1048E00037454143354541360000000036373241F7
:1048F0003833423735334436303034373030353062
:104900003030353334464531353346373030324335
:104910003637303038464431344530303642323123
:10492000354239413446344430303341303032300E
:1049300030303230374541433545413600000000C4
:104940006049000000000020940000009E4100002B
:10495000F449000094000020F4100000AE41000073
:104960000000000000000001000000010100010043
:10497000000000000008000001000000000000002E
:104980000000000000000000000000000000000027
:104990000000000000000000000000000000000017
:1049A0000000000000000000000000000000000007
:1049B00000000000000000000000000000000000F7
:1049C000000000000000000031373833393336333F
:1049D0003730370003030601040602050003050013
:1049E00001000000100000000000000000A24A04C6
:0449F00000000000C3
:04000005000000ED0A
:00000001FF
